{
  "_format": "hh-sol-artifact-1",
  "contractName": "MyEpicNFT",
  "sourceName": "contracts/MyEpicNFT.sol",
  "abi": [
    {
      "inputs": [],
      "stateMutability": "nonpayable",
      "type": "constructor"
    },
    {
      "anonymous": false,
      "inputs": [
        {
          "indexed": true,
          "internalType": "address",
          "name": "owner",
          "type": "address"
        },
        {
          "indexed": true,
          "internalType": "address",
          "name": "approved",
          "type": "address"
        },
        {
          "indexed": true,
          "internalType": "uint256",
          "name": "tokenId",
          "type": "uint256"
        }
      ],
      "name": "Approval",
      "type": "event"
    },
    {
      "anonymous": false,
      "inputs": [
        {
          "indexed": true,
          "internalType": "address",
          "name": "owner",
          "type": "address"
        },
        {
          "indexed": true,
          "internalType": "address",
          "name": "operator",
          "type": "address"
        },
        {
          "indexed": false,
          "internalType": "bool",
          "name": "approved",
          "type": "bool"
        }
      ],
      "name": "ApprovalForAll",
      "type": "event"
    },
    {
      "anonymous": false,
      "inputs": [
        {
          "indexed": false,
          "internalType": "address",
          "name": "sender",
          "type": "address"
        },
        {
          "indexed": false,
          "internalType": "uint256",
          "name": "tokenId",
          "type": "uint256"
        }
      ],
      "name": "NewEpicNFTMinted",
      "type": "event"
    },
    {
      "anonymous": false,
      "inputs": [
        {
          "indexed": true,
          "internalType": "address",
          "name": "from",
          "type": "address"
        },
        {
          "indexed": true,
          "internalType": "address",
          "name": "to",
          "type": "address"
        },
        {
          "indexed": true,
          "internalType": "uint256",
          "name": "tokenId",
          "type": "uint256"
        }
      ],
      "name": "Transfer",
      "type": "event"
    },
    {
      "inputs": [
        {
          "internalType": "address",
          "name": "to",
          "type": "address"
        },
        {
          "internalType": "uint256",
          "name": "tokenId",
          "type": "uint256"
        }
      ],
      "name": "approve",
      "outputs": [],
      "stateMutability": "nonpayable",
      "type": "function"
    },
    {
      "inputs": [
        {
          "internalType": "address",
          "name": "owner",
          "type": "address"
        }
      ],
      "name": "balanceOf",
      "outputs": [
        {
          "internalType": "uint256",
          "name": "",
          "type": "uint256"
        }
      ],
      "stateMutability": "view",
      "type": "function"
    },
    {
      "inputs": [
        {
          "internalType": "uint256",
          "name": "tokenId",
          "type": "uint256"
        }
      ],
      "name": "getApproved",
      "outputs": [
        {
          "internalType": "address",
          "name": "",
          "type": "address"
        }
      ],
      "stateMutability": "view",
      "type": "function"
    },
    {
      "inputs": [],
      "name": "getTotalNFTsMintedSoFar",
      "outputs": [
        {
          "internalType": "uint256",
          "name": "",
          "type": "uint256"
        }
      ],
      "stateMutability": "view",
      "type": "function"
    },
    {
      "inputs": [
        {
          "internalType": "address",
          "name": "owner",
          "type": "address"
        },
        {
          "internalType": "address",
          "name": "operator",
          "type": "address"
        }
      ],
      "name": "isApprovedForAll",
      "outputs": [
        {
          "internalType": "bool",
          "name": "",
          "type": "bool"
        }
      ],
      "stateMutability": "view",
      "type": "function"
    },
    {
      "inputs": [],
      "name": "makeAnEpicNFT",
      "outputs": [],
      "stateMutability": "nonpayable",
      "type": "function"
    },
    {
      "inputs": [],
      "name": "name",
      "outputs": [
        {
          "internalType": "string",
          "name": "",
          "type": "string"
        }
      ],
      "stateMutability": "view",
      "type": "function"
    },
    {
      "inputs": [
        {
          "internalType": "uint256",
          "name": "tokenId",
          "type": "uint256"
        }
      ],
      "name": "ownerOf",
      "outputs": [
        {
          "internalType": "address",
          "name": "",
          "type": "address"
        }
      ],
      "stateMutability": "view",
      "type": "function"
    },
    {
      "inputs": [
        {
          "internalType": "address",
          "name": "from",
          "type": "address"
        },
        {
          "internalType": "address",
          "name": "to",
          "type": "address"
        },
        {
          "internalType": "uint256",
          "name": "tokenId",
          "type": "uint256"
        }
      ],
      "name": "safeTransferFrom",
      "outputs": [],
      "stateMutability": "nonpayable",
      "type": "function"
    },
    {
      "inputs": [
        {
          "internalType": "address",
          "name": "from",
          "type": "address"
        },
        {
          "internalType": "address",
          "name": "to",
          "type": "address"
        },
        {
          "internalType": "uint256",
          "name": "tokenId",
          "type": "uint256"
        },
        {
          "internalType": "bytes",
          "name": "_data",
          "type": "bytes"
        }
      ],
      "name": "safeTransferFrom",
      "outputs": [],
      "stateMutability": "nonpayable",
      "type": "function"
    },
    {
      "inputs": [
        {
          "internalType": "address",
          "name": "operator",
          "type": "address"
        },
        {
          "internalType": "bool",
          "name": "approved",
          "type": "bool"
        }
      ],
      "name": "setApprovalForAll",
      "outputs": [],
      "stateMutability": "nonpayable",
      "type": "function"
    },
    {
      "inputs": [
        {
          "internalType": "bytes4",
          "name": "interfaceId",
          "type": "bytes4"
        }
      ],
      "name": "supportsInterface",
      "outputs": [
        {
          "internalType": "bool",
          "name": "",
          "type": "bool"
        }
      ],
      "stateMutability": "view",
      "type": "function"
    },
    {
      "inputs": [],
      "name": "symbol",
      "outputs": [
        {
          "internalType": "string",
          "name": "",
          "type": "string"
        }
      ],
      "stateMutability": "view",
      "type": "function"
    },
    {
      "inputs": [
        {
          "internalType": "uint256",
          "name": "tokenId",
          "type": "uint256"
        }
      ],
      "name": "tokenURI",
      "outputs": [
        {
          "internalType": "string",
          "name": "",
          "type": "string"
        }
      ],
      "stateMutability": "view",
      "type": "function"
    },
    {
      "inputs": [
        {
          "internalType": "address",
          "name": "from",
          "type": "address"
        },
        {
          "internalType": "address",
          "name": "to",
          "type": "address"
        },
        {
          "internalType": "uint256",
          "name": "tokenId",
          "type": "uint256"
        }
      ],
      "name": "transferFrom",
      "outputs": [],
      "stateMutability": "nonpayable",
      "type": "function"
    }
  ],
  "bytecode": "0x60806040523480156200001157600080fd5b506040518060400160405280600e81526020017f5a656e697468536e616b654e46540000000000000000000000000000000000008152506040518060400160405280600481526020017f5a534e4b00000000000000000000000000000000000000000000000000000000815250816000908051906020019062000096929190620000b8565b508060019080519060200190620000af929190620000b8565b505050620001cd565b828054620000c69062000168565b90600052602060002090601f016020900481019282620000ea576000855562000136565b82601f106200010557805160ff191683800117855562000136565b8280016001018555821562000136579182015b828111156200013557825182559160200191906001019062000118565b5b50905062000145919062000149565b5090565b5b80821115620001645760008160009055506001016200014a565b5090565b600060028204905060018216806200018157607f821691505b602082108114156200019857620001976200019e565b5b50919050565b7f4e487b7100000000000000000000000000000000000000000000000000000000600052602260045260246000fd5b612e9880620001dd6000396000f3fe608060405234801561001057600080fd5b50600436106100f55760003560e01c80636352211e11610097578063b88d4fde11610066578063b88d4fde14610284578063c87b56dd146102a0578063de9d132f146102d0578063e985e9c5146102da576100f5565b80636352211e146101ea57806370a082311461021a57806395d89b411461024a578063a22cb46514610268576100f5565b8063081812fc116100d3578063081812fc14610166578063095ea7b31461019657806323b872dd146101b257806342842e0e146101ce576100f5565b806301ffc9a7146100fa578063060475901461012a57806306fdde0314610148575b600080fd5b610114600480360381019061010f9190611e62565b61030a565b6040516101219190612762565b60405180910390f35b6101326103ec565b60405161013f91906129bf565b60405180910390f35b6101506103fd565b60405161015d919061277d565b60405180910390f35b610180600480360381019061017b9190611eb4565b61048f565b60405161018d91906126d2565b60405180910390f35b6101b060048036038101906101ab9190611e26565b610514565b005b6101cc60048036038101906101c79190611d20565b61062c565b005b6101e860048036038101906101e39190611d20565b61068c565b005b61020460048036038101906101ff9190611eb4565b6106ac565b60405161021191906126d2565b60405180910390f35b610234600480360381019061022f9190611cbb565b61075e565b60405161024191906129bf565b60405180910390f35b610252610816565b60405161025f919061277d565b60405180910390f35b610282600480360381019061027d9190611dea565b6108a8565b005b61029e60048036038101906102999190611d6f565b6108be565b005b6102ba60048036038101906102b59190611eb4565b610920565b6040516102c7919061277d565b60405180910390f35b6102d8610a72565b005b6102f460048036038101906102ef9190611ce4565b610b4b565b6040516103019190612762565b60405180910390f35b60007f80ac58cd000000000000000000000000000000000000000000000000000000007bffffffffffffffffffffffffffffffffffffffffffffffffffffffff1916827bffffffffffffffffffffffffffffffffffffffffffffffffffffffff191614806103d557507f5b5e139f000000000000000000000000000000000000000000000000000000007bffffffffffffffffffffffffffffffffffffffffffffffffffffffff1916827bffffffffffffffffffffffffffffffffffffffffffffffffffffffff1916145b806103e557506103e482610bdf565b5b9050919050565b60006103f86007610c49565b905090565b60606000805461040c90612c8d565b80601f016020809104026020016040519081016040528092919081815260200182805461043890612c8d565b80156104855780601f1061045a57610100808354040283529160200191610485565b820191906000526020600020905b81548152906001019060200180831161046857829003601f168201915b5050505050905090565b600061049a82610c57565b6104d9576040517f08c379a00000000000000000000000000000000000000000000000000000000081526004016104d09061291f565b60405180910390fd5b6004600083815260200190815260200160002060009054906101000a900473ffffffffffffffffffffffffffffffffffffffff169050919050565b600061051f826106ac565b90508073ffffffffffffffffffffffffffffffffffffffff168373ffffffffffffffffffffffffffffffffffffffff161415610590576040517f08c379a00000000000000000000000000000000000000000000000000000000081526004016105879061297f565b60405180910390fd5b8073ffffffffffffffffffffffffffffffffffffffff166105af610cc3565b73ffffffffffffffffffffffffffffffffffffffff1614806105de57506105dd816105d8610cc3565b610b4b565b5b61061d576040517f08c379a00000000000000000000000000000000000000000000000000000000081526004016106149061285f565b60405180910390fd5b6106278383610ccb565b505050565b61063d610637610cc3565b82610d84565b61067c576040517f08c379a00000000000000000000000000000000000000000000000000000000081526004016106739061299f565b60405180910390fd5b610687838383610e62565b505050565b6106a7838383604051806020016040528060008152506108be565b505050565b6000806002600084815260200190815260200160002060009054906101000a900473ffffffffffffffffffffffffffffffffffffffff169050600073ffffffffffffffffffffffffffffffffffffffff168173ffffffffffffffffffffffffffffffffffffffff161415610755576040517f08c379a000000000000000000000000000000000000000000000000000000000815260040161074c9061289f565b60405180910390fd5b80915050919050565b60008073ffffffffffffffffffffffffffffffffffffffff168273ffffffffffffffffffffffffffffffffffffffff1614156107cf576040517f08c379a00000000000000000000000000000000000000000000000000000000081526004016107c69061287f565b60405180910390fd5b600360008373ffffffffffffffffffffffffffffffffffffffff1673ffffffffffffffffffffffffffffffffffffffff168152602001908152602001600020549050919050565b60606001805461082590612c8d565b80601f016020809104026020016040519081016040528092919081815260200182805461085190612c8d565b801561089e5780601f106108735761010080835404028352916020019161089e565b820191906000526020600020905b81548152906001019060200180831161088157829003601f168201915b5050505050905090565b6108ba6108b3610cc3565b83836110be565b5050565b6108cf6108c9610cc3565b83610d84565b61090e576040517f08c379a00000000000000000000000000000000000000000000000000000000081526004016109059061299f565b60405180910390fd5b61091a8484848461122b565b50505050565b606061092b82610c57565b61096a576040517f08c379a0000000000000000000000000000000000000000000000000000000008152600401610961906128ff565b60405180910390fd5b600060066000848152602001908152602001600020805461098a90612c8d565b80601f01602080910402602001604051908101604052809291908181526020018280546109b690612c8d565b8015610a035780601f106109d857610100808354040283529160200191610a03565b820191906000526020600020905b8154815290600101906020018083116109e657829003601f168201915b505050505090506000610a14611287565b9050600081511415610a2a578192505050610a6d565b600082511115610a5f578082604051602001610a47929190612681565b60405160208183030381529060405292505050610a6d565b610a688461129e565b925050505b919050565b6000610a7e6007610c49565b90506101f48110610ac4576040517f08c379a0000000000000000000000000000000000000000000000000000000008152600401610abb9061279f565b60405180910390fd5b6000610acf82611345565b604051602001610adf91906126a5565b6040516020818303038152906040529050610afa338361151a565b610b048282611538565b610b0e60076115ac565b7febb98688741ffa4c7589bf325de30cf7becb63de567842e1ccdb6cb949fdc82c3383604051610b3f929190612739565b60405180910390a15050565b6000600560008473ffffffffffffffffffffffffffffffffffffffff1673ffffffffffffffffffffffffffffffffffffffff16815260200190815260200160002060008373ffffffffffffffffffffffffffffffffffffffff1673ffffffffffffffffffffffffffffffffffffffff16815260200190815260200160002060009054906101000a900460ff16905092915050565b60007f01ffc9a7000000000000000000000000000000000000000000000000000000007bffffffffffffffffffffffffffffffffffffffffffffffffffffffff1916827bffffffffffffffffffffffffffffffffffffffffffffffffffffffff1916149050919050565b600081600001549050919050565b60008073ffffffffffffffffffffffffffffffffffffffff166002600084815260200190815260200160002060009054906101000a900473ffffffffffffffffffffffffffffffffffffffff1673ffffffffffffffffffffffffffffffffffffffff1614159050919050565b600033905090565b816004600083815260200190815260200160002060006101000a81548173ffffffffffffffffffffffffffffffffffffffff021916908373ffffffffffffffffffffffffffffffffffffffff160217905550808273ffffffffffffffffffffffffffffffffffffffff16610d3e836106ac565b73ffffffffffffffffffffffffffffffffffffffff167f8c5be1e5ebec7d5bd14f71427d1e84f3dd0314c0f7b2291e5b200ac8c7c3b92560405160405180910390a45050565b6000610d8f82610c57565b610dce576040517f08c379a0000000000000000000000000000000000000000000000000000000008152600401610dc59061283f565b60405180910390fd5b6000610dd9836106ac565b90508073ffffffffffffffffffffffffffffffffffffffff168473ffffffffffffffffffffffffffffffffffffffff161480610e4857508373ffffffffffffffffffffffffffffffffffffffff16610e308461048f565b73ffffffffffffffffffffffffffffffffffffffff16145b80610e595750610e588185610b4b565b5b91505092915050565b8273ffffffffffffffffffffffffffffffffffffffff16610e82826106ac565b73ffffffffffffffffffffffffffffffffffffffff1614610ed8576040517f08c379a0000000000000000000000000000000000000000000000000000000008152600401610ecf9061293f565b60405180910390fd5b600073ffffffffffffffffffffffffffffffffffffffff168273ffffffffffffffffffffffffffffffffffffffff161415610f48576040517f08c379a0000000000000000000000000000000000000000000000000000000008152600401610f3f906127ff565b60405180910390fd5b610f538383836115c2565b610f5e600082610ccb565b6001600360008573ffffffffffffffffffffffffffffffffffffffff1673ffffffffffffffffffffffffffffffffffffffff1681526020019081526020016000206000828254610fae9190612b96565b925050819055506001600360008473ffffffffffffffffffffffffffffffffffffffff1673ffffffffffffffffffffffffffffffffffffffff16815260200190815260200160002060008282546110059190612a7e565b92505081905550816002600083815260200190815260200160002060006101000a81548173ffffffffffffffffffffffffffffffffffffffff021916908373ffffffffffffffffffffffffffffffffffffffff160217905550808273ffffffffffffffffffffffffffffffffffffffff168473ffffffffffffffffffffffffffffffffffffffff167fddf252ad1be2c89b69c2b068fc378daa952ba7f163c4a11628f55a4df523b3ef60405160405180910390a4505050565b8173ffffffffffffffffffffffffffffffffffffffff168373ffffffffffffffffffffffffffffffffffffffff16141561112d576040517f08c379a00000000000000000000000000000000000000000000000000000000081526004016111249061281f565b60405180910390fd5b80600560008573ffffffffffffffffffffffffffffffffffffffff1673ffffffffffffffffffffffffffffffffffffffff16815260200190815260200160002060008473ffffffffffffffffffffffffffffffffffffffff1673ffffffffffffffffffffffffffffffffffffffff16815260200190815260200160002060006101000a81548160ff0219169083151502179055508173ffffffffffffffffffffffffffffffffffffffff168373ffffffffffffffffffffffffffffffffffffffff167f17307eab39ab6107e8899845ad3d59bd9653f200f220920489ca2b5937696c318360405161121e9190612762565b60405180910390a3505050565b611236848484610e62565b611242848484846115c7565b611281576040517f08c379a0000000000000000000000000000000000000000000000000000000008152600401611278906127bf565b60405180910390fd5b50505050565b606060405180602001604052806000815250905090565b60606112a982610c57565b6112e8576040517f08c379a00000000000000000000000000000000000000000000000000000000081526004016112df9061295f565b60405180910390fd5b60006112f2611287565b90506000815111611312576040518060200160405280600081525061133d565b8061131c8461175e565b60405160200161132d929190612681565b6040516020818303038152906040525b915050919050565b6060600082141561138d576040518060400160405280600181526020017f30000000000000000000000000000000000000000000000000000000000000008152509050611515565b600082905060005b600082146113bf5780806113a890612cbf565b915050600a826113b89190612b0b565b9150611395565b60008167ffffffffffffffff811115611401577f4e487b7100000000000000000000000000000000000000000000000000000000600052604160045260246000fd5b6040519080825280601f01601f1916602001820160405280156114335781602001600182028036833780820191505090505b50905060008290505b6000861461150d576001816114519190612b96565b90506000600a80886114639190612b0b565b61146d9190612b3c565b876114789190612b96565b60306114849190612ad4565b905060008160f81b9050808484815181106114c8577f4e487b7100000000000000000000000000000000000000000000000000000000600052603260045260246000fd5b60200101907effffffffffffffffffffffffffffffffffffffffffffffffffffffffffffff1916908160001a905350600a886115049190612b0b565b9750505061143c565b819450505050505b919050565b61153482826040518060200160405280600081525061190b565b5050565b61154182610c57565b611580576040517f08c379a0000000000000000000000000000000000000000000000000000000008152600401611577906128bf565b60405180910390fd5b806006600084815260200190815260200160002090805190602001906115a7929190611b47565b505050565b6001816000016000828254019250508190555050565b505050565b60006115e88473ffffffffffffffffffffffffffffffffffffffff16611966565b15611751578373ffffffffffffffffffffffffffffffffffffffff1663150b7a02611611610cc3565b8786866040518563ffffffff1660e01b815260040161163394939291906126ed565b602060405180830381600087803b15801561164d57600080fd5b505af192505050801561167e57506040513d601f19601f8201168201806040525081019061167b9190611e8b565b60015b611701573d80600081146116ae576040519150601f19603f3d011682016040523d82523d6000602084013e6116b3565b606091505b506000815114156116f9576040517f08c379a00000000000000000000000000000000000000000000000000000000081526004016116f0906127bf565b60405180910390fd5b805181602001fd5b63150b7a0260e01b7bffffffffffffffffffffffffffffffffffffffffffffffffffffffff1916817bffffffffffffffffffffffffffffffffffffffffffffffffffffffff191614915050611756565b600190505b949350505050565b606060008214156117a6576040518060400160405280600181526020017f30000000000000000000000000000000000000000000000000000000000000008152509050611906565b600082905060005b600082146117d85780806117c190612cbf565b915050600a826117d19190612b0b565b91506117ae565b60008167ffffffffffffffff81111561181a577f4e487b7100000000000000000000000000000000000000000000000000000000600052604160045260246000fd5b6040519080825280601f01601f19166020018201604052801561184c5781602001600182028036833780820191505090505b5090505b600085146118ff576001826118659190612b96565b9150600a856118749190612d08565b60306118809190612a7e565b60f81b8183815181106118bc577f4e487b7100000000000000000000000000000000000000000000000000000000600052603260045260246000fd5b60200101907effffffffffffffffffffffffffffffffffffffffffffffffffffffffffffff1916908160001a905350600a856118f89190612b0b565b9450611850565b8093505050505b919050565b6119158383611979565b61192260008484846115c7565b611961576040517f08c379a0000000000000000000000000000000000000000000000000000000008152600401611958906127bf565b60405180910390fd5b505050565b600080823b905060008111915050919050565b600073ffffffffffffffffffffffffffffffffffffffff168273ffffffffffffffffffffffffffffffffffffffff1614156119e9576040517f08c379a00000000000000000000000000000000000000000000000000000000081526004016119e0906128df565b60405180910390fd5b6119f281610c57565b15611a32576040517f08c379a0000000000000000000000000000000000000000000000000000000008152600401611a29906127df565b60405180910390fd5b611a3e600083836115c2565b6001600360008473ffffffffffffffffffffffffffffffffffffffff1673ffffffffffffffffffffffffffffffffffffffff1681526020019081526020016000206000828254611a8e9190612a7e565b92505081905550816002600083815260200190815260200160002060006101000a81548173ffffffffffffffffffffffffffffffffffffffff021916908373ffffffffffffffffffffffffffffffffffffffff160217905550808273ffffffffffffffffffffffffffffffffffffffff16600073ffffffffffffffffffffffffffffffffffffffff167fddf252ad1be2c89b69c2b068fc378daa952ba7f163c4a11628f55a4df523b3ef60405160405180910390a45050565b828054611b5390612c8d565b90600052602060002090601f016020900481019282611b755760008555611bbc565b82601f10611b8e57805160ff1916838001178555611bbc565b82800160010185558215611bbc579182015b82811115611bbb578251825591602001919060010190611ba0565b5b509050611bc99190611bcd565b5090565b5b80821115611be6576000816000905550600101611bce565b5090565b6000611bfd611bf884612a0b565b6129da565b905082815260208101848484011115611c1557600080fd5b611c20848285612c4b565b509392505050565b600081359050611c3781612e06565b92915050565b600081359050611c4c81612e1d565b92915050565b600081359050611c6181612e34565b92915050565b600081519050611c7681612e34565b92915050565b600082601f830112611c8d57600080fd5b8135611c9d848260208601611bea565b91505092915050565b600081359050611cb581612e4b565b92915050565b600060208284031215611ccd57600080fd5b6000611cdb84828501611c28565b91505092915050565b60008060408385031215611cf757600080fd5b6000611d0585828601611c28565b9250506020611d1685828601611c28565b9150509250929050565b600080600060608486031215611d3557600080fd5b6000611d4386828701611c28565b9350506020611d5486828701611c28565b9250506040611d6586828701611ca6565b9150509250925092565b60008060008060808587031215611d8557600080fd5b6000611d9387828801611c28565b9450506020611da487828801611c28565b9350506040611db587828801611ca6565b925050606085013567ffffffffffffffff811115611dd257600080fd5b611dde87828801611c7c565b91505092959194509250565b60008060408385031215611dfd57600080fd5b6000611e0b85828601611c28565b9250506020611e1c85828601611c3d565b9150509250929050565b60008060408385031215611e3957600080fd5b6000611e4785828601611c28565b9250506020611e5885828601611ca6565b9150509250929050565b600060208284031215611e7457600080fd5b6000611e8284828501611c52565b91505092915050565b600060208284031215611e9d57600080fd5b6000611eab84828501611c67565b91505092915050565b600060208284031215611ec657600080fd5b6000611ed484828501611ca6565b91505092915050565b611ee681612bca565b82525050565b611ef581612bdc565b82525050565b6000611f0682612a3b565b611f108185612a51565b9350611f20818560208601612c5a565b611f2981612df5565b840191505092915050565b6000611f3f82612a46565b611f498185612a62565b9350611f59818560208601612c5a565b611f6281612df5565b840191505092915050565b6000611f7882612a46565b611f828185612a73565b9350611f92818560208601612c5a565b80840191505092915050565b6000611fab601f83612a62565b91507f43616e6e6f74206d696e74206d6f7265207468616e20353030204e46542773006000830152602082019050919050565b6000611feb603283612a62565b91507f4552433732313a207472616e7366657220746f206e6f6e20455243373231526560008301527f63656976657220696d706c656d656e74657200000000000000000000000000006020830152604082019050919050565b6000612051601c83612a62565b91507f4552433732313a20746f6b656e20616c7265616479206d696e746564000000006000830152602082019050919050565b6000612091602483612a62565b91507f4552433732313a207472616e7366657220746f20746865207a65726f2061646460008301527f72657373000000000000000000000000000000000000000000000000000000006020830152604082019050919050565b60006120f7601983612a62565b91507f4552433732313a20617070726f766520746f2063616c6c6572000000000000006000830152602082019050919050565b6000612137602c83612a62565b91507f4552433732313a206f70657261746f7220717565727920666f72206e6f6e657860008301527f697374656e7420746f6b656e00000000000000000000000000000000000000006020830152604082019050919050565b600061219d603883612a62565b91507f4552433732313a20617070726f76652063616c6c6572206973206e6f74206f7760008301527f6e6572206e6f7220617070726f76656420666f7220616c6c00000000000000006020830152604082019050919050565b6000612203602a83612a62565b91507f4552433732313a2062616c616e636520717565727920666f7220746865207a6560008301527f726f2061646472657373000000000000000000000000000000000000000000006020830152604082019050919050565b6000612269602983612a62565b91507f4552433732313a206f776e657220717565727920666f72206e6f6e657869737460008301527f656e7420746f6b656e00000000000000000000000000000000000000000000006020830152604082019050919050565b60006122cf602e83612a62565b91507f45524337323155524953746f726167653a2055524920736574206f66206e6f6e60008301527f6578697374656e7420746f6b656e0000000000000000000000000000000000006020830152604082019050919050565b6000612335602083612a62565b91507f4552433732313a206d696e7420746f20746865207a65726f20616464726573736000830152602082019050919050565b6000612375603183612a62565b91507f45524337323155524953746f726167653a2055524920717565727920666f722060008301527f6e6f6e6578697374656e7420746f6b656e0000000000000000000000000000006020830152604082019050919050565b60006123db602c83612a62565b91507f4552433732313a20617070726f76656420717565727920666f72206e6f6e657860008301527f697374656e7420746f6b656e00000000000000000000000000000000000000006020830152604082019050919050565b6000612441600583612a73565b91507f2e6a736f6e0000000000000000000000000000000000000000000000000000006000830152600582019050919050565b6000612481602983612a62565b91507f4552433732313a207472616e73666572206f6620746f6b656e2074686174206960008301527f73206e6f74206f776e00000000000000000000000000000000000000000000006020830152604082019050919050565b60006124e7602f83612a62565b91507f4552433732314d657461646174613a2055524920717565727920666f72206e6f60008301527f6e6578697374656e7420746f6b656e00000000000000000000000000000000006020830152604082019050919050565b600061254d602183612a62565b91507f4552433732313a20617070726f76616c20746f2063757272656e74206f776e6560008301527f72000000000000000000000000000000000000000000000000000000000000006020830152604082019050919050565b60006125b3603f83612a73565b91507f697066733a2f2f516d6437426671504e337a556b68356d66475a6b673957696360008301527f646959473632335064515631734b656d5951714c622f6d657461646174612f006020830152603f82019050919050565b6000612619603183612a62565b91507f4552433732313a207472616e736665722063616c6c6572206973206e6f74206f60008301527f776e6572206e6f7220617070726f7665640000000000000000000000000000006020830152604082019050919050565b61267b81612c34565b82525050565b600061268d8285611f6d565b91506126998284611f6d565b91508190509392505050565b60006126b0826125a6565b91506126bc8284611f6d565b91506126c782612434565b915081905092915050565b60006020820190506126e76000830184611edd565b92915050565b60006080820190506127026000830187611edd565b61270f6020830186611edd565b61271c6040830185612672565b818103606083015261272e8184611efb565b905095945050505050565b600060408201905061274e6000830185611edd565b61275b6020830184612672565b9392505050565b60006020820190506127776000830184611eec565b92915050565b600060208201905081810360008301526127978184611f34565b905092915050565b600060208201905081810360008301526127b881611f9e565b9050919050565b600060208201905081810360008301526127d881611fde565b9050919050565b600060208201905081810360008301526127f881612044565b9050919050565b6000602082019050818103600083015261281881612084565b9050919050565b60006020820190508181036000830152612838816120ea565b9050919050565b600060208201905081810360008301526128588161212a565b9050919050565b6000602082019050818103600083015261287881612190565b9050919050565b60006020820190508181036000830152612898816121f6565b9050919050565b600060208201905081810360008301526128b88161225c565b9050919050565b600060208201905081810360008301526128d8816122c2565b9050919050565b600060208201905081810360008301526128f881612328565b9050919050565b6000602082019050818103600083015261291881612368565b9050919050565b60006020820190508181036000830152612938816123ce565b9050919050565b6000602082019050818103600083015261295881612474565b9050919050565b60006020820190508181036000830152612978816124da565b9050919050565b6000602082019050818103600083015261299881612540565b9050919050565b600060208201905081810360008301526129b88161260c565b9050919050565b60006020820190506129d46000830184612672565b92915050565b6000604051905081810181811067ffffffffffffffff82111715612a0157612a00612dc6565b5b8060405250919050565b600067ffffffffffffffff821115612a2657612a25612dc6565b5b601f19601f8301169050602081019050919050565b600081519050919050565b600081519050919050565b600082825260208201905092915050565b600082825260208201905092915050565b600081905092915050565b6000612a8982612c34565b9150612a9483612c34565b9250827fffffffffffffffffffffffffffffffffffffffffffffffffffffffffffffffff03821115612ac957612ac8612d39565b5b828201905092915050565b6000612adf82612c3e565b9150612aea83612c3e565b92508260ff03821115612b0057612aff612d39565b5b828201905092915050565b6000612b1682612c34565b9150612b2183612c34565b925082612b3157612b30612d68565b5b828204905092915050565b6000612b4782612c34565b9150612b5283612c34565b9250817fffffffffffffffffffffffffffffffffffffffffffffffffffffffffffffffff0483118215151615612b8b57612b8a612d39565b5b828202905092915050565b6000612ba182612c34565b9150612bac83612c34565b925082821015612bbf57612bbe612d39565b5b828203905092915050565b6000612bd582612c14565b9050919050565b60008115159050919050565b60007fffffffff0000000000000000000000000000000000000000000000000000000082169050919050565b600073ffffffffffffffffffffffffffffffffffffffff82169050919050565b6000819050919050565b600060ff82169050919050565b82818337600083830152505050565b60005b83811015612c78578082015181840152602081019050612c5d565b83811115612c87576000848401525b50505050565b60006002820490506001821680612ca557607f821691505b60208210811415612cb957612cb8612d97565b5b50919050565b6000612cca82612c34565b91507fffffffffffffffffffffffffffffffffffffffffffffffffffffffffffffffff821415612cfd57612cfc612d39565b5b600182019050919050565b6000612d1382612c34565b9150612d1e83612c34565b925082612d2e57612d2d612d68565b5b828206905092915050565b7f4e487b7100000000000000000000000000000000000000000000000000000000600052601160045260246000fd5b7f4e487b7100000000000000000000000000000000000000000000000000000000600052601260045260246000fd5b7f4e487b7100000000000000000000000000000000000000000000000000000000600052602260045260246000fd5b7f4e487b7100000000000000000000000000000000000000000000000000000000600052604160045260246000fd5b6000601f19601f8301169050919050565b612e0f81612bca565b8114612e1a57600080fd5b50565b612e2681612bdc565b8114612e3157600080fd5b50565b612e3d81612be8565b8114612e4857600080fd5b50565b612e5481612c34565b8114612e5f57600080fd5b5056fea2646970667358221220dee3d0a3af2b617c0d9dea590cc21bb930c95014aff1e573ae5ee141c09cac4764736f6c63430008000033",
  "linkReferences": {},
  "deployedLinkReferences": {}
}